:0300030002031BDA
:10031B00C0E0C0F0C083C082C0D075D018901F0160
:10032B00E0F528901F0BE0F52930E713901F0DE047
:10033B0054DFF0901F0BE0547FF0D210751200E5E4
:10034B002930E507901F0BE054DFF0E52930E60A72
:10035B00901F0BE054BFF0751201E52830E51290A9
:10036B001F01E054DFF0901F06E054DFF0D200D203
:10037B0008E52830E409901F01E054EFF0D201E5C5
:10038B002830E30C901F01E054F7F0D21102043631
:10039B00E52830E10C901F01E054FDF0D20D020472
:1003AB0036E52830E20C901F01E054FBF0120F7081
:1003BB008079E52830E018435702901F02E557F08B
:1003CB00901F01E054FEF0E0547FF0D207805CE513
:1003DB002830E629901F01E054BFF0901F05E05430
:1003EB00BFF0C2183005127817E6901F00F0C20557
:1003FB00901F03E04401F08032D206802EE52830B6
:10040B00E729752A00D204901F04E0540F700E9058
:10041B001F01E054BFF0901F05E4F0F52A901F0177
:10042B00E0547FF0901F03E054FEF0D0D0D082D088
:06043B0083D0F0D0E03296
:03001300020DB922
:100DB900C0E0C083C082C0D075D008901F81E078A0
:100DC900A5F6E6FF30E404E054EFF0EF30E70990D0
:100DD9001F81E0547FF0D21278A5E630E007901F1A
:100DE90081E054FEF078A5E6FF30E107901F81E02D
:100DF90054FDF0EF30E307901F81E054F7F078A538
:100E0900E630E207901F81E054FBF0D0D0D082D0C9
:040E190083D0E03270
:03001B00021202CC
:10120200C0E0C0D0C28E30091A758D63758BC030B4
:10121200151B301518055DE55DB42503755D00D21B
:101222008E800A758DFE758B3E055DD28ED0D0D034
:02123200E032A8
:10143700E4F5A8758911C28A758DFE758B3E75B85E
:051447000575A88522D7
:10147500E4FF0FBFFFFCE4FF0FBFFFFCE4FF0FBF5E
:02148500FFFC6A
:011487002242
:10144C00D209901F8DE04402F0121475D2ABD28EEB
:05145C00E04401F02254
:100F26001214E930040CC2041213CD901F03E044DE
:100F360001F030070CC2071214CC901F03E04401E5
:100F4600F030060CC206120C67901F03E04401F055
:100F5600300D031213AC301208C212121437120CE1
:0A0F6600E3301105C211120CE32262
:100F7000C20D901F01E054FBF0E054FDF04357FB1D
:100F8000755891901F03E0547FF0901F02E557F0D1
:100F9000901F82E558F0901F01E4F0901F0BF09035
:100FA0001F81F0901F04F0A3F0A3F0A3F0901F0D99
:0A0FB000F0A3F0901F0AF0D20E2209
:1013AC0030151D75570C901F02E557F0901F82E405
:1013BC00F0901F03E04480F0901F8B74FFF0C21577
:0113CC0022FE
:100CE300901F01E4F0901F0BF0901F81F0901F0301
:100CF300F0901F00F0901F90F0901F04F0A3F0A35A
:100D0300F0A3F0901F0DF0A3F0901F0AF078A9F65E
:100D1300C20D7557FB901F02E557F0755880901F61
:100D230082E558F0C20C901F06E04440F0A3E04473
:100D330040F0901F0DE04440F0901F807460F0C2BB
:100D430009D209E4F55DC215C216F55FF532C21387
:010D5300227D
:10149A00E4F557901F02F0755880901F82E558F0C6
:0114AA00221F
:1010890012143712144C12149A120CE3C2ABC28E0A
:10109900D209901F8DE04408F012150B901FACE0A7
:1010A9004480F0901FAB74FFF0901F9BF0901F8C51
:0A10B900E030E705120F2680F42254
:03000000020AD21F
:0C0AD20078FFE4F6D8FD7581AB020B192B
:10001E0012011001000000083011076820010102D2
:10002E0003010902420002010380320904000002AA
:10003E00030000000921100121012227000705837A
:10004E0003400001070504034000010904010001FB
:10005E00030000000921100121012224000705855B
:10006E000308000106A0FF0901A1010901150026E0
:10007E00FF0075409508910295087540150026FF02
:10008E0000090119002AFF008100C005010903A122
:10009E00010901150026FF0075089508810015005D
:1000AE002501954075010508190129409102C004EA
:1000BE000309041E0355005300420020004400654E
:1000CE000070006100720074006D0065006E0074B7
:1000DE000028035200570020003600340042005919
:1000EE0000540045005300200050004C00410054C5
:1000FE000046004F0052004D002803470065006E79
:10010E00006500720061006C0020005000750072E6
:10011E000070006F00730065002000550053004210
:10012E0000000002000000000000000000000000BF
:10013E0000000000000000000000000000000000B1
:10014E0000000000000000000000000000000000A1
:10015E000000000000000000000000000000000091
:10016E00000000000074656E782E494E4374656E73
:10017E00782E737A68A4E53E485ED3FAE804A53E6D
:10018E0068EED32A18FF095BFF0B5EFF1514FF0BF9
:10019E00E8FF1514FF1420FF0441FF1514FF11CFC3
:0901AE00FF0D54FF12F2FF0E7F59
:0D00060078A6762074204440901F05F0225B
:100C6700D218E4FF30160C75471175463075496880
:100C7700754807EFC394085053E52A604FAB2BAA7A
:100C87002CA92D1202ADFE74302FF582E4341FF526
:100C970083EEF0301627E52AD3940A5020E52AC3BD
:100CA7009407401974462FF8E6FE74302FF582E456
:100CB700341FF583EEF0E52AB40702C2160F74015C
:100CC700252DF52DE4352CF52CD52AA778A6E66435
:0B0CD70020F64F901F05F0E04440F0B5
:010CE20022EF
:1013EC00901F26E06010E0C3952A500AA3E0700617
:0A13FC00901F26E0F52A120C67226C
:10044100E4F542F543754432754512901F20E0648E
:1004510080600DE064816008E064826003020563EE
:10046100901F23E014602014603214604024E27075
:10047100030204FF14700302053124226003020504
:100481005B1213EC02055F90001EE493F52A752BB5
:10049100FF752C00752D1ED21602055FC216752A36
:1004A10042752BFF752C00752D3002055FC2169029
:1004B1001F22E01460191460251460302403703A7F
:1004C100752A04752BFF752C00752DBD02055F750E
:1004D1002A1E752BFF752C00752DC102055F752A2B
:1004E10028752BFF752C00752DDF8072752A2875F4
:1004F1002BFF752C01752D07806412151422901F96
:1005010024E0146015047024900042E493F52A75E8
:100511002BFF752C00752D428044900062E493F509
:100521002A752BFF752C00752D628032121514224D
:10053100901F24E014601104701C752A27752BFF8D
:10054100752C00752D728016752A24752BFF752C5C
:1005510000752D99800812151422121514221213F8
:05056100EC221215144C
:010566002272
:10142000901F20E0700DD205901F22E07817F61271
:071430000006221215142230
:10095B00901F20E0247F602A14603D240260030274
:10096B000A12752A0278A7E6700C752BFF752C01FD
:10097B00752D2F020A12752BFF752C01752D310267
:10098B000A1278A4E678A2F6E408F6752A02F52B8B
:10099B00752C00752DA2806FE478A0F608F6901FD9
:1009AB0024E024FE601D24FE60332481602224FE9B
:1009BB00603824047041901F06E030E73E78A07643
:1009CB00018038901F07E030E73178A07601802B4B
:1009DB00901F0DE030E72478A07601801E901F0E4B
:1009EB00E030E71778A076018011901F0AE030E71E
:1009FB000A78A07601800412151422752A02752B31
:100A0B0000752C00752DA01213EC901F07E04420ED
:020A1B00F022C7
:100B5E00901F20E07012901F22E0B40206E478A7E6
:100B6E00F68073121514806E901F20E0640270637D
:100B7E0078A8E664017057901F24E024FE602624B6
:100B8E00FE60342483601524FE602324FE6031242D
:100B9E00857036901F05E054CFF0803A901F06E026
:100BAE00546FF08031901F07E0546FF08028901F33
:100BBE000DE0546FF0801F901F0EE0546FF0801602
:100BCE00901F0AE0546FF0800D1215148008121554
:0A0BDE001480031215141200062201
:100BE800901F20E06402705878A8E66401704C9069
:100BF8001F24E0606624FE601924FE6027248160BB
:100C08001A24FE60282404702D901F06E04480F00A
:100C18008049901F07E04480F08040901F0DE04419
:100C280080F08037901F0EE04480F0802E901F0ADD
:100C3800E04480F080251215148020121514801BC2
:100C4800901F20E07012901F22E0B4020678A77669
:0F0C5800018008121514800312151412000622D1
:1011CF00901F20E064807027901F26E0B4012078E4
:1011DF00A8E6B4010678A076018004E478A0F6753D
:1011EF002A01752B00752C00752DA01213EC2212FD
:0311FF00151422A2
:100D5400901F20E0705B901F22E064017027E07810
:100D6400A8F678AA767D752F7D901F067450F090B2
:100D74001F0DF0901F0AF0901F0274FBF0901F0CDF
:100D840074E0F08012901F22E078A8F6901F02749D
:100D9400C9F0901F0CE4F0120006901F07E04440D5
:100DA400F0E04420F0901F0EE04440F0D215D2133E
:050DB4002212151422BB
:1012F200901F20E0B4811D901F26E0B4011678A44F
:10130200E678A0F6752A01752B00752C00752DA0C4
:081312001213EC221215142243
:100E7F00901F20E06401704E901F22E078A4F6903E
:100E8F001F24E0603D901F24E064017018901F2222
:100E9F00E07009901F06E054BFF08026901F06E017
:100EAF004440F0801D901F24E0B40216901F22E0F2
:100EBF007009901F0DE054BFF08007901F0DE044A4
:0A0ECF0040F0120006221215142252
:08151400901F05E04410F022D5
:0F14CC00901F04E030E604121514221208742257
:10087400901F20E0F53BA3E0F53CA3E0F53DA3E0A9
:10088400F53EA3E0F53FA3E0F540A3E0F541E478AD
:10089400A6F6901F20E0B42112901F24E0B4010BAF
:1008A400901F21E0B40A0412000622901F20E0B435
:1008B400A110901F24E064026004E0B40104120A51
:1008C4001D22901F20E0B42109A3E0F46004120E5D
:1008D4001D22901F21E0D3940B501CE075F003A45B
:1008E4002493F582E43401F583E493740193FA7458
:1008F4000293F912031522901F21E064FE703290D6
:100904001F20E064A1702AE5416026E540F47003ED
:10091400E53FF4601CE5416018E53E453D70127802
:10092400A0F6752A01F52B752C00752DA01213EC79
:1009340022901F21E0B4FF1B901F20E0B42114E596
:1009440040F47003E53FF4600AE53E453D7004124F
:060954000006221215143A
:01095A00227A
:100A1D00901F24E064017052901F21E024FE601F9E
:100A2D0014602E2402703C78A8E6B4010E752A409D
:100A3D00752BFF752C01752D33802C121514227812
:100A4D00A0A62F752A01752B00752C00752DA08081
:100A5D001678A0A630752A01752B00752C00752D02
:100A6D00A08004121514221213EC901F24E06402CE
:100A7D007052901F21E024FE601F14602E2402701E
:100A8D003C78A8E6B4010E752A08752BFF752C016C
:100A9D00752D33802C1215142278A0A62F752A01DE
:100AAD00752B00752C00752DA0801678A0A63075BD
:100ABD002A01752B00752C00752DA08004121514BC
:050ACD00221213EC22CF
:100E1D00901F21E06409600AE0640A6005E0640B3C
:100E2D00704C901F21E024F6602214602A24027079
:100E3D002E901F24E0B40110901F23E0B402097816
:100E4D00A8E66004D214801B12151422901F23E013
:100E5D0078AAF6F52F800C901F22E0F53080041251
:100E6D00151422120006901F03E04401F022121502
:020E7D0014223D
:1013CD0030141BC214901F2FE0FFD394C8500CEFA4
:0E13DD005403700712067FE4F5322212104905
:0113EB0022DF
:10067F00E4FF0FBFFAFC901F80E054F7F0901400D6
:10068F00E0FF530703EF75F008A42473F582E434F9
:10069F0001F583E493FE901F2FE06E901400F0EFAE
:1006AF0075F008A42474F582E43401F583E493FE15
:1006BF00901F2FE06E901401F0EF75F008A42475D1
:1006CF00F582E43401F583E493FE901F2FE06E90E2
:1006DF001402F0EF75F008A42476F582E43401F5E6
:1006EF0083E493FE901F2FE06E901403F0EF75F0EC
:1006FF0008A42477F582E43401F583E493FE901F78
:10070F002FE06E901404F0EF75F008A42478F582B2
:10071F00E43401F583E493FE901F2FE06E901405EF
:10072F00F0EF75F008A42479F582E43401F583E441
:10073F0093FE901F2FE06E901406F0EF75F008A453
:10074F00247AF582E43401F583E493FE901F2FE0C1
:10075F006E901407F07F08E42FF582E43414F583CC
:10076F00E4F00FBF40F1901F80E04408F0C2107F0B
:09077F00401214613010FDC2109B
:01078800224E
:091502003090037F01227F0022DA
:0A14F700E4FEEEC39F50030E80F8E0
:0115010022C7
:09150B00D291D291D290D290222B
:10140600D291D290D290D291E4FF1214F7C290E416
:0A1416001214F7C291E41214F72239
:0E14DB00E4FF1214F7D291E41214F7D290221B
:10131A00E4FF1214F7E41214F7D290E41214F7D28D
:10132A0091E41214F7E41214F7C290E41214F7C20B
:06133A0091E41214F722F9
:10148800E4FF1214F7D291E41214F7C291E4121493
:02149800F72239
:10116700D290E4FF1214F7D291E41214F712150289
:10117700EF6011E4FF1214F7C291E41214F7D29052
:10118700C2900F22E4FF1214F7C291E41214F7D2AF
:0411970090C2902250
:10126500D290E4FD7C07121502EF600D7401A8040D
:10127500088002C333D8FC42051214881CC3EC64F1
:0E12850080948050E1D290C290121488AF0580
:011293002238
:10123400D290E4FD7C07121502EF600D7401A8043E
:10124400088002C333D8FC42051214881CC3EC6422
:1012540080948050E1D290D290121488C290AF054D
:011264002267
:02134000AD07F7
:101342007C07EDA804088002C313D8FC30E004D265
:10135200908002C2901214881CC3EC648094805066
:01136200E1A9
:011363002267
:0810C3008B468A4789488D49DC
:1010CB00E4F54AE54AC395495023AB46AA47A948DC
:1010DB00854A827583001202C6FF121340121167F4
:0F10EB00EF60061214DB7F0022054A80D67F01DA
:0110FA0022D3
:080FBA008B498A4A894B8D4CDA
:100FC200E4F54DE54C14FFE54DC39F501712126531
:100FD200AB49AA4AA94B854D82758300EF1202F3F1
:100FE200054D80DF121234E54C7C0024FFF582ECC3
:100FF20034FFF583AB49AA4AA94BEF1202F37F01F2
:0110020022CB
:0F14BC00011400011300011200011100011000C2
:10146100901F0FEFF0901F0DE0FF630710EFF0E00A
:031471004420F024
:011474002255
:10104900901F2FE02443601D240270337514BB9058
:101059001F2EE0F513901F2DE0F511901F2CE0F5E0
:1010690010751201227514BD901F2EE0F513E4F5D9
:1010790012901F80E04404F0901F0EE04420F022FB
:10078900E4F53EE51464BB6003AF3E22901F80E0B0
:1007990054F7F0E51324FE603E14606714700302F9
:1007A9000838240360030208657B017A1479028BF7
:1007B9003B8A3C893D7D0812151C8F3EE53E600D44
:1007C9009014007408F0A37401F0020865901400F5
:1007D900E4F0A3F00208657B017A1479028B3B8A65
:1007E9003C893D7D1412153C8F3EE53E600C90140A
:1007F900007414F0A37401F08062901400E4F0A373
:10080900F080597B017A1479028B3B8A3C893D7DC2
:100819003712152C8F3EE53E600C9014007437F0AA
:10082900A37401F08036901400E4F0A3F0802D7BCE
:10083900017A1479028B3B8A3C893D851043AF11BB
:100849001212948F3EE53E600C901400E510F0A35F
:100859007401F08007901400E4F0A3F07F401214B3
:0A08690061901F80E04408F0AF3EEC
:010873002262
:10056700E4F53BE51464BD6003AF3B22901F0EE04A
:1005770054DFF0901F80E054FBF0E5132402700372
:1005870002064E24FDB4090040030206599005A255
:1005970075F003A4C58325F0C583730205BD020565
:1005A700D00205DF0205EE0205FD02060C02061D5C
:1005B7000206290206387B017A157901901500E0B9
:1005C700FD1215248F3B0206597B017A1579007DB0
:1005D700081215448F3B807A7B017A1579007D08D4
:1005E70012154C8F3B806B7B017A1579007D0812C1
:1005F70015548F3B805C7B017A1579007D081215B5
:100607005C8F3B804D901500E0FDA3E0FBE4FF12FB
:1006170010038F3B803C901500E0FF12119B8F3B2E
:1006270080307B017A1579007D141215348F3B8059
:1006370021901500E0FF7B017A157902A3E0F540D0
:100647001212C38F3B800B7B017A157900120ED9EA
:100657008F3B901F80E054F7F0E53B700690140045
:10066700F080069014007401F0901F80E04408F0B9
:070677007F401214617F00B7
:01067E002259
:0E14E900E5126009E4F5121207891205672268
:040016005C805C406E
:1014AB00E4FEE4FDEDC39F50030D80F80EBEFFF28A
:0114BB00220E
:08151C008D487FF01210FB2244
:081524008D45E4FF121388223B
:08152C008D48E4FF1210FB22C0
:101294008F3FE53FC39480401AE53FD394EF50134A
:1012A400E53F2543FFE433FED3EF94F0EE648094EE
:0F12B4008040037F0022854348AF3F1210FB228A
:061003008F3C8D3D8B3E89
:10100900E4F53F78407C00FD7BFF7A007916FE7F8E
:1010190002120287E53C6003434120E53D33333347
:1010290054F84241E53E60034341047B007A00796C
:0F103900407D021211318F3F7F641214ABAF3F25
:011048002285
:081534008D457F5E1213882231
:08153C008D487F401210FB22D4
:02119B008F3C87
:10119D00753D01783E7C007D007BFF7A0079187EDD
:1011AD00007F02120287E53CC454F0423F7B007A77
:1011BD0000793E7D021211318F3D7F641214ABAF69
:0111CD003DE4
:0111CE0022FE
:081544008D457F54121388222B
:08154C008D457F601213882217
:081554008D457F681213882207
:08155C008D457F7012138822F7
:1012C3008F3CE53CC39480401AE53CD394EF501324
:1012D300E53C2540FFE433FED3EF94F0EE648094C5
:0F12E3008040037F0022854045AF3C12138822D4
:100ED900E4F53CFF7F407860E4F608DFFCE4FF12AC
:100EE90002ADFEEFC39E5014EFF582758300A31285
:100EF90002C6FE74602FF8A6060F80E37B007A0015
:100F090079607D1412153C8F3CE53CB4010C7B00E3
:0C0F19007A0079607D40121524227F00D0
:010F250022A9
:021364008F49AF
:101366001214067F80121340121167EF700EAF49F8
:10137600121340121167EF70037F01221214DB7FF4
:011386000066
:011387002243
:101388008B428A438944121364AB42AA43A944ADF1
:10139800451210C3EF7002FF221214DB7F0A1214E9
:0413A800AB7F0122F4
:1010FB008B458A46894712136412131A7F81121388
:10110B0040121167EF60061214DB7F0022AB45AA79
:10111B0046A947AD48120FBAEF7002FF221214DB3B
:06112B007F011214AB224B
:101131008B428A4389448D451214067F80121340E5
:10114100121167EF60061214DB7F0022AB42AA4343
:10115100A944AD451210C3EF7002FF221214DB7FC8
:06116100021214AB1F2274
:100ADE00021089E493A3F8E493A34003F68001F295
:100AEE0008DFF48029E493A3F85407240CC8C33319
:100AFE00C4540F4420C8834004F456800146F6DFE8
:100B0E00E4800B01020408102040809014BCE47EA7
:100B1E00019360BCA3FF543F30E509541FFEE493DC
:100B2E00A360010ECF54C025E060A840B8E493A3A3
:100B3E00FAE493A3F8E493A3C8C582C8CAC583CACE
:100B4E00F0A3C8C582C8CAC583CADFE9DEE780BE86
:0114CB000020
:1001B700E709F608DFFA8046E709F208DFFA803E2A
:1001C70088828C83E709F0A3DFFA8032E309F60817
:1001D700DFFA8078E309F208DFFA807088828C837F
:1001E700E309F0A3DFFA806489828A83E0A3F60833
:1001F700DFFA805889828A83E0A3F208DFFA804C0D
:1002070080D280FA80C680D4806980F280338010E3
:1002170080A680EA809A80A880DA80E280CA80334C
:1002270089828A83ECFAE493A3C8C582C8CCC583C4
:10023700CCF0A3C8C582C8CCC583CCDFE9DEE78094
:100247000D89828A83E493A3F608DFF9ECFAA9F013
:10025700EDFB2289828A83ECFAE0A3C8C582C8CC69
:10026700C583CCF0A3C8C582C8CCC583CCDFEADE82
:10027700E880DB89828A83E493A3F208DFF980CCE4
:1002870088F0EF60010E4E60C388F0ED2402B404DD
:100297000050B9F582EB2402B4040050AF23234584
:0602A700822390020773A0
:1002AD00BB010689828A83E0225002E722BBFE024F
:0902BD00E32289828A83E4932282
:1002C600BB010CE58229F582E5833AF583E02250ED
:1002D60006E92582F8E622BBFE06E92582F8E22237
:0D02E600E58229F582E5833AF583E4932251
:1002F300F8BB010DE58229F582E5833AF583E8F041
:10030300225006E92582C8F622BBFE05E92582C8EC
:02031300F222D4
:060315008A838982E47373
:00000001FF
